:020000040800F2
:100000007852002025020008D1160008811100084E
:10001000B116000871030008FD240008000000006C
:100020000000000000000000000000009D0100082A
:10003000ED0C000800000000CD01000811220008AE
:100040003F0200083F0200083F0200083F0200088C
:100050003F0200083F0200083F0200083F0200087C
:100060003F0200089D0D00083F0200083F02000803
:100070003F0200083F0200083F0200083F0200085C
:100080003F0200083F0200083F020008E1060008A6
:10009000A904000849050008D50500083F0200082A
:1000A0003F0200083F0200083F0200083F0200082C
:1000B0003F0200083F0200083F0200083F0200081C
:1000C0003F0200083F0200083F0200083F0200080C
:1000D0003F020008392300083F0200083F020008E1
:1000E0003F0200083F0200083F0200083F020008EC
:1000F0003F0200083F0200083F0200083F020008DC
:100100003F0200083F0200083F0200083F020008CB
:100110003F0200083F0200083F0200083F020008BB
:100120003F0200083F0200083F0200083F020008AB
:100130003F020008110D00083F0200083F020008BE
:100140003F0200083F0200083F0200083F0200088B
:100150003F0200083F0200083F0200083F0200087B
:100160003F0200083F0200083F0200083F0200086B
:100170003F0200083F0200083F0200083F0200085B
:100180003F0200083F020008DFF80CD000F0BEF884
:1001900000480047112B000878520020194B1968BD
:1001A0000868B0E8F00F80F309884FF0000080F392
:1001B00011884EF00D0E70470000000002480068E4
:1001C000006880F3088800DF08ED00E0EFF30980A5
:1001D0000C4B1A6820E9F00F106008B54FF0BF0013
:1001E00080F3118803F04CF84FF0000080F3118881
:1001F000BDE8084019680868B0E8F00F80F3098886
:10020000704700BFC000002001B44FF0BF0080F372
:10021000118801BC704701B44FF0000080F31188D1
:1002200001BC70470648804706480047FEE7FEE7E6
:10023000FEE7FEE7FEE7FEE7FEE7FEE7FEE7FEE796
:10024000D92200088901000840EA01039B0703D076
:1002500009E008C9121F08C0042AFAD203E011F805
:10026000013B00F8013B521EF9D27047D2B201E0C7
:1002700000F8012B491EFBD270470022F6E710B5AB
:1002800004460846114602462046FFF7EFFF204687
:1002900010BD10B5044604E00B7800F8013B03B133
:1002A000491C521EF8D2204610BD2DE9F05F0546CC
:1002B000002092469B4688460646814640241BE025
:1002C000284641464746224600F041F852465B46E2
:1002D000801A994110D310461946224600F028F89A
:1002E0002D1A67EB01084F4622460120002100F03D
:1002F0001FF817EB00094E41201EA4F10104DFDCBA
:10030000484631462A464346BDE8F09F064C074D15
:1003100006E0E06840F0010394E8070098471034D5
:10032000AC42F6D3FFF734FF004F0008204F00081F
:10033000202A04DB203A00FA02F1002070479140A5
:10034000C2F1200320FA03F3194390407047202A9A
:1003500004DB203A21FA02F00021704721FA02F36F
:10036000D040C2F120029140084319467047000076
:1003700001A002F0D3F8FEE70A0D20427573466132
:10038000756C745F48616E646C65722000000000DB
:1003900070B5142188B0084602F0E4FF2D4C01210D
:1003A0006060402002F0DEFFA06003F00AF82A4EF1
:1003B000E060304600F01CFA2848016841F0007106
:1003C000016000F0DFFD684600F0B4FB00F04EFC79
:1003D00000248DF806408DF807400F208DF80400AA
:1003E00006208DF8084001258DF802408DF80500A3
:1003F0008DF809508DF8034023208DF80A40ADF8A0
:1004000000008DF80B506946304600F0D7FAD0B1A5
:1004100013A002F083F88DF816408DF817408DF880
:100420001850ADF80C40ADF81040ADF80E40ADF8E6
:100430001240ADF814408DF8195003A800F0FAF9F5
:10044000002008B070BD11A002F068F84FF0FF3036
:10045000F7E7000020000020006400404038024020
:1004600043414E3120696E697469616C206173206B
:1004700043414E5F4D6F64655F4E6F726D616C20DE
:10048000737563636573730D0A00000043414E3159
:100490005F496E69745374617475735F4661696C0A
:1004A00065640D0A0000000010B586B000201C4CE9
:1004B00005900221204600F01FFA01280CD00421EB
:1004C000204600F019FA012817D00821204600F034
:1004D00013FA012816D01CE00221204600F04CF946
:1004E0006A460021204600F0DDFA0E48002305AAE6
:1004F0006946006803F075F80BE00BA002F00EF8F7
:10050000042103E00CA002F009F80821204600F0C5
:1005100033F90598002801D002F090FD06B010BD17
:10052000006400402400002043414E315F49545F85
:10053000464630200D0A000043414E315F49545F6A
:10054000464F5630200D0A0010B5154C102120469C
:1005500000F0D2F9012814D02021204600F0CCF977
:10056000012817D04021204600F0C6F9012816D1F5
:100570000CA001F0D3FF40212046BDE8104000F060
:10058000FBB80CA001F0CAFF2046BDE810400121D5
:1005900000F044B90BA001F0C1FF2021ECE710BD31
:1005A0000064004043414E315F49545F464F56312D
:1005B000200D0A0043414E315F49545F464D503192
:1005C000200D0A0043414E315F49545F46463120B9
:1005D0000D0A000070B5254C4FF4803529462046A1
:1005E00000F08AF9012833D06D002946204600F03A
:1005F00083F901282ED0A5152946204600F07CF964
:10060000012829D065152946204600F075F90128F2
:1006100024D025152946204600F06EF901281FD068
:10062000E5142946204600F067F901281AD0E513A1
:100630002946204600F060F9012815D10CA000BF22
:1006400001F06CFF29462046BDE8704000F094B8E8
:100650000BA0F5E70EA0F3E711A0F1E714A0EFE778
:1006600017A0EDE71AA0EBE770BD000000640040A2
:1006700043414E315F49545F455252200D0A0000FC
:1006800043414E315F49545F574B55200D0A0000DE
:1006900043414E315F49545F534C4B200D0A0000DB
:1006A00043414E315F49545F455747200D0A0000D2
:1006B00043414E315F49545F455056200D0A0000BA
:1006C00043414E315F49545F424F46200D0A0000BE
:1006D00043414E315F49545F4C4543200D0A0000B1
:1006E00070B5184D0121284600F006F9154C083464
:1006F000012813D0A115284600F0FEF8012818D0D3
:100700004FF48031284600F0F7F8012818D10EA0E8
:1007100001F004FF206840F4803010E00F480178B9
:10072000284600F06BFA0E490870206840F001007E
:1007300005E00CA001F0F2FE206840F4807020601B
:1007400070BD00000064004043414E315F5453527D
:100750005F5251435032200D0A000000200000205B
:100760003000002043414E315F5453525F52514399
:100770005031200D0A00000030B508231024042257
:10078000B1F5007F1DD010DC202929D007DC01291C
:1007900021D0042922D0082900D1C46030BD4029CD
:1007A00020D0B1F5807FF9D10BE00025B1F5004FE5
:1007B00006D008DCB1F5806F03D0B1F5006FEDD144
:1007C0008561426030BDB1F5803F0DD0B1F5003F8D
:1007D000F8D1446030BD0549816030BDC36030BD93
:1007E000036130BD046130BD436030BD01010100D3
:1007F000094910B588424FF0010101D14C0601E0D2
:100800004FF08064204600F0F7FF2046BDE810401E
:10081000002100F0F1BF00000064004021B1016937
:1008200041F0200101617047C16841F02001C160C1
:1008300070470000F0B5827ADFF8B8C0012191401E
:10084000DCF8002042F00102CCF80020294A1C32DA
:1008500013688B431360274B264C067B0C334034C4
:10086000251D86B91E688E431E604688C78846EAE5
:100870000746877A44F837600688878846EA07463D
:10088000877A45F83760067B012E0ED11E680E432D
:100890001E600368867A4FEA334344F83630436873
:1008A000847A4FEA334345F83430124BC47A1B1D27
:1008B000002C1C6806D00C431C600E4B04891433BA
:1008C00014B104E08C43F7E71C688C431C60048976
:1008D000012C02D11C680C431C60407B012802D112
:1008E000106808431060DCF8000020F00100CCF82C
:1008F0000000F0BD0066004010B5436900220B42C5
:100900004FD0B1F5807F3CD010DC08292AD006DC1E
:10091000012920D0022921D0042942D120E0102928
:1009200022D0202923D040293BD123E0B1F5004F2C
:1009300032D009DCB1F5007F26D0B1F5806F26D02A
:10094000B1F5006F2DD124E0B1F5803F15D0B1F5A0
:10095000003F26D113E0806813491FE0C06804E01F
:10096000C06805E0C06806E00069032116E0006980
:10097000082113E00069102110E04068F8E74068A2
:10098000F9E78069012109E08069022106E08069B8
:1009900003E08069702101E04068042100F0A0F9C3
:1009A0000246104610BD000001010100002A426904
:1009B00001D00A4300E08A434261704710B50368E2
:1009C000002223F002030360036843F00103036085
:1009D0004FF6FF7300E0521C4468E40701D19A42CD
:1009E000F9D14268D2073ED08A79012A02683CD008
:1009F00022F080020260CA79012A026838D022F00F
:100A0000400202600A7A012A026834D022F02002F1
:100A100002604A7A012A026830D022F01002026095
:100A20008A7A012A02682CD022F008020260CA7A6F
:100A3000012A026828D022F0040202608A78CC7869
:100A4000920742EA04620C7942EA04424C7909882E
:100A500042EA0452491E0A43C261016821F00101C1
:100A60000160002114E0002010BD42F08002C1E7C7
:100A700042F04002C5E742F02002C9E742F010020E
:100A8000CDE742F00802D1E742F00402D5E7491C65
:100A90004268D20701D09942F9D14068C007E2D13B
:100AA000012010BD10B500EB0113D3F8B04114F0D4
:100AB00004041472D3F8B0414FEA5454146004D0C3
:100AC000D3F8B041C4F3D104546003F5D8731C6863
:100AD00004F0020454725C6804F00F0494725C68C1
:100AE0004FEA1424D4749C68D4729C684FEA14248E
:100AF00014739C684FEA144454739C684FEA14645E
:100B00009473DC68D473DC684FEA14241474DC68D2
:100B10004FEA14445474DB684FEA1363937421B1B1
:100B2000016941F02001016110BDC16841F020015F
:100B3000C16010BD00218171C17101724172817269
:100B4000C1728170C17003210171022141710121C3
:100B50000180704730B50246002093685B0108D4DD
:100B60009068000101D5012003E09068C00039D5EC
:100B7000022002EB0012D2F8803103F00103C2F828
:100B800080310B7A83B34C68C4F311044C604D7A06
:100B90002B430D686D0545EAC4042343D2F8804118
:100BA00053EA0403C2F880318B7A02F5C07203F075
:100BB0000F038B72536823F00F03536053688C7AD2
:100BC00043EA04035360CB7ACC6843EA042393607E
:100BD000CB7B096943EA0121D160116841F0010131
:100BE000116030BD042030BDFFE7D2F880314C7A6F
:100BF00023430C6843EA4453D4E70000002221B1A8
:100C0000012905D0022906D112E08268124801E0CC
:100C10008268124802401249501A8A4214D00ADCF3
:100C2000A2B16FF08060101813D002280CD10FE031
:100C300082680C48EEE7B0F5007F09D00A494018F9
:100C400007D0B0F5003F03D0002002E0022000E012
:100C50000120C0B270470000030000040003000838
:100C600000010008000003100001FFF7F8B5132091
:100C70008DF8000000248DF801408DF80240012518
:100C80008DF80350684600F025FD144E01221146F0
:100C90003046FFF78BFE14208DF800008DF80140E0
:100CA0008DF802408DF80350684600F013FD0122D4
:100CB0000E213046FFF77AFE15208DF800008DF8E2
:100CC00001408DF802408DF80350684600F002FDA7
:100CD000012270213046FFF769FEF8BD0064004034
:100CE0000022084200D001221046704770470000E1
:100CF000014948617047000000900240034A0146E4
:100D0000002052690A4200D0012070470090024042
:100D100008B5002000904020FFF7F0FF012806D121
:100D2000094800236A461946006802F05AFC402030
:100D3000FFF7DEFF4FF48030FFF7DAFF009800285E
:100D400001D002F07BF908BD3C00002030B5114A0B
:100D5000002314694FF6FF7504F01C0405EAC02057
:100D600020434FF4F86404EA8111014321F00200AA
:100D700040F001001061084811695B1CC90701D0EF
:100D80008342F9D3834201D1002030BD506980B243
:100D900030BD000000800240FFFF040010B50820B5
:100DA00000F012F8002807D0012000F01DF8BDE87F
:100DB0001040082000F002B810BD00000149086092
:100DC00070470000143C0140064A014600201268AA
:100DD000044B0A4014331B680B4202D0002A00D097
:100DE00001207047003C014010B51221FFF7AEFF13
:100DF000800430D5184C2078C04320704FF47840E0
:100E000000F04AFC207888B100F092FBC08813A162
:100E100000EB800080B200F09DFA00F089FBC088F2
:100E200014A100EB40004004000C10E000F080FB37
:100E3000C0880AA100EB800080B200F08BFA00F0BD
:100E400077FBC08811A100EB40004004000CBDE816
:100E5000104000F07FBA10BD1400002020204E6525
:100E600074776F726B204361626C65206973202018
:100E7000000000002020202020756E706C756767D0
:100E80006564202020202020000000002020206E0B
:100E90006F7720636F6E6E65637465642020202019
:100EA000000000004FF0204202EB800000290168A2
:100EB00002D041F0010101E0014A11400160704798
:100EC000FEFF0F0030B5D0E901121143D0E9032332
:100ED0001A43114342690368114382691143C2698D
:100EE0001143026A1143426A1143826A1143C26A82
:100EF0001143026B11434FF0204242F823108168E6
:100F0000082906D1016802EB81010B6843F0400318
:100F10000B60416BD1E9003443EA04138C68CD685F
:100F2000240244EA054423430C6943EA04534C6910
:100F3000896943EA04630B43016802EB81014B605A
:100F4000C16AB1F5804F07D000686FF0704102EBC5
:100F50008000C0F8041130BD816B0068D1E9003415
:100F600043EA04138C680D69240244EA05542343C0
:100F70004C69896943EA046302EB80000B43C0F8C3
:100F8000043130BD7CB51B48016841F00B010160A4
:100F90000121022000F000FC174E304600F02EF830
:100FA00002248DF804400125B0158DF806500090FC
:100FB0008DF805408DF807506946304600F090F8EE
:100FC0008DF8044020028DF8065000908DF8054001
:100FD0008DF807506946304600F082F80922082152
:100FE000304600F0BBF809221146304600F0B6F852
:100FF0007CBD000034380240000402402F4910B587
:10100000884206D10121084600F0D2FB00210120D0
:101010004FE02B49884206D10121022000F0C8FB95
:101020000021022045E02749884206D10121042001
:1010300000F0BEFB002104203BE02349884206D19A
:101040000121082000F0B4FB0021082031E01F49F5
:10105000884206D10121102000F0AAFB00211020B7
:1010600027E01B49884206D10121202000F0A0FB87
:10107000002120201DE01749884206D1012140208F
:1010800000F096FB0021402013E01349884206D16E
:101090000121802000F08CFB0021802009E00F4915
:1010A00088420AD184150121204600F081FB0021ED
:1010B0002046BDE8104000F07BBB10BD00000240A0
:1010C0000004024000080240000C024000100240F0
:1010D0000014024000180240001C024000200240A0
:1010E000F0B5002201234FF0030C00BF0D6803FA96
:1010F00002F42540A5422DD1066854000CFA04F5EF
:10110000AE4306600E790768A6403E4306600E793E
:10111000012E01D0022E12D18668AE4386604D7931
:101120008668A54035438560456803FA02F6B543F5
:10113000456045688E799640B6B235434560C568CE
:1011400056000CFA06F7BD43C560CD79A540C468CA
:101150002543C560521C102AC8D3F0BD4B07DB0ED7
:101160009A40C90810B500EB8100016A0F249C4029
:10117000A1430162016A1143016210BD01837047FE
:1011800001A001F0CBF9FEE70A0D20486172644628
:1011900061756C745F48616E646C6572200000005C
:1011A00030B50546002440F23F11204600F048FAD1
:1011B0004FF0D841222008804FF496304D80641CB7
:1011C0008442FBD330BD00002DE9FC410121782091
:1011D00000F0E2FA02258DF804504CF233708DF8DD
:1011E000055000244E4E00908DF806408DF80740C3
:1011F00069463046FFF774FF0C2200213046FFF7A6
:10120000ADFF0C2201213046FFF7A8FF0C2204217C
:101210003046FFF7A3FF0C2205213046FFF79EFF63
:101220000C2208213046FFF799FF0C220921304695
:10123000FFF794FF0C220A213046FFF78FFF0C22A4
:101240000E213046FFF78AFF0C220F213046FFF7B0
:1012500085FF4FF68070334E009069463046FFF7A9
:101260003FFF0C2207213046FFF778FF0C220821B0
:101270003046FFF773FF0C2209213046FFF76EFF5F
:101280000C220A213046FFF769FF0C220B21304661
:10129000FFF764FF0C2211463046FFF75FFF0C2278
:1012A0000D213046FFF75AFF0C220E213046FFF782
:1012B00055FF0C220F213046FFF750FF1A4F012631
:1012C000694638460096FFF70BFF0C22002138468E
:1012D000FFF744FFE802154F009069463846FFF7D4
:1012E000FFFE0C2211463846FFF738FF012104208B
:1012F00000F052FA8DF804608DF805508DF8064024
:101300008DF8074080200A4C009069462046FFF780
:10131000E7FE80212046FFF731FFBDE8FC81000099
:10132000000C02400010024000140240001802406D
:1013300000080240064B10B49B68203AD2B21C68E9
:10134000DB88534304EB430210BC00F039B80000C3
:10135000540000202DE9F04180460D4600240A4E3D
:101360004FF4A07708E021464046FFF7E3FFB0685E
:101370006D1C8088204484B22A78002A01D0BC42A7
:10138000F1D3BDE8F081000054000020F0B5002446
:101390000A4D07465FF0040604EBC40005EBC002EB
:1013A00004EB440006EBC00081B2384600F054F86C
:1013B000641CA4B20D2CEFD3F0BD0000D84A000885
:1013C0002DE9F04F8B4691460027064600F038F98C
:1013D0004FF0220A4FF0D8481E4D33E0A8F800A085
:1013E000002424E00C21B0FBF1F1CA0080219140DF
:1013F00039F817202141114201D10C2805D90121CA
:10140000A1400A4224D10C2822D96888012804D09E
:10141000B5F80200A8F8020008E00BEB0400401C3D
:1014200081B2304600F00CF9A8F800A0641CA8684E
:101430008088A042D6D8761CB6B25946304600F015
:10144000FFF87F1CA868C088B842C7D8BDE8F08FF5
:101450002888DFE7540000202DE9F74F914600254A
:101460000446019900F0ECF84FF080084FF0D84C9A
:101470002220ACF80000002105EB45064FF4784A25
:101480004FF6E07B0020731828FA00F219F8037079
:10149000174214D04FEA0B02ACF80220401C082877
:1014A000F2D3491C0329EDD3641CE4B22046019910
:1014B00000F0C6F86D1C182DD8D3BDE8FE8F52463B
:1014C000EAE700B501219DB0084600F07DF909204A
:1014D0000F9000200821CDE9100114AB12904906AD
:1014E0000122139007C30322CDE9170219901A9025
:1014F000CDE91B010621CDE900101021CDE9020143
:1015000004900902CDE90801059006900790890032
:10151000CDE90A010C900FA80D9016A80E90684610
:10152000FFF7D0FC01210620FFF7BCFC1DB000BD79
:1015300001488068704700005400002010B500F09A
:10154000BFF9002000F0E4FD012000F0E1FD0220E1
:1015500000F0DEFD032000F0DBFD0020FFF720FEA1
:10156000002000F061F84FF6FF7000F095F8FFF7EB
:10157000DFFF12A10020FFF7EDFEFFF7D9FFC088C3
:1015800014A1FFF7E7FEFFF7D3FFC08817A14004BF
:10159000000CFFF7DFFEFFF7CBFFC08819A100EBBF
:1015A000400080B2FFF7D6FEFFF7C2FFC088BDE85B
:1015B00010408006000EFFF7E9BE00002020535ABD
:1015C000572D53544D3332463430375A472020205C
:1015D00000000000202053544D3332462D34205358
:1015E0006572696573202020000000004261736904
:1015F00063205765625365727665722044656D6F2E
:101600000000000020207777772E61726D6A697381
:1016100068752E636F6D2020000000004FF0D841E8
:1016200008804888704700000149488070470000E2
:1016300054000020014A108051807047540000205F
:101640000346144810B580880C46A0F50941893935
:1016500006D119464E2000F025F821464F2014E00F
:10166000A0F51341253907D11946202000F01AF8BA
:10167000A4F23F14604206E02146202000F012F858
:10168000A3F23F13584281B22120BDE8104000F080
:1016900009B800005400002001490880704700008C
:1016A000540000204FF0D842108051807047000055
:1016B00001A000F033FFFEE70A0D204D656D4D617E
:1016C0006E6167655F48616E646C65722000000042
:1016D0007047000070B50F21C478027801234FF0E5
:1016E000E026E4B1124C246804F4E064C4F5E0643C
:1016F000C4F30724C4F10405E1404478AC40857884
:101700000D4025430B4C29011155007800F01F01B5
:101710008B40400906EB8000C0F8003170BD02F03C
:101720001F008340500906EB8000C0F8803170BD77
:101730000CED00E000E400E000B585B04FF4E130CE
:1017400000900020ADF80400ADF80600ADF80800E8
:10175000ADF80C000C20ADF80A006946002000F03E
:1017600069FC25208DF8100001208DF81100022160
:101770008DF812108DF8130004A8FFF7ABFF0122BB
:1017800040F22551034800F03DFE00F067FD05B032
:1017900000BD000000100140044A0029116801D07A
:1017A000014300E08143116070470000303802407F
:1017B000044A0029116801D0014300E0814311600F
:1017C0007047000010380240044A0029116801D017
:1017D000014300E081431160704700003838024047
:1017E000044A0029116801D0014300E081431160DF
:1017F0007047000040380240044A0029116801D0B7
:10180000014300E08143116070470000203802402E
:10181000044A0029116801D0014300E081431160AE
:10182000704700004438024070B5214B1968214AC6
:1018300011F00C0104D0204E042903D0082903D054
:1018400002601BE0066019E01949091F0C68C4F327
:1018500080550C6804F03F0415B1B6FBF4F201E0CA
:10186000B2FBF4F20C680968C4F388146243C1F354
:101870000141491C4900B2FBF1F1016019680F4AAE
:1018800001F0F0010909545C0168E14041601C6805
:1018900004F4E054A40A145D21FA04F484601B6883
:1018A00003F460435B0BD25CD140C16070BD0000AB
:1018B000083802400024F40040787D0144000020F4
:1018C0002DE9F04F8DB01822F1A16846FEF7BCFC5F
:1018D0001822F5A106A8FEF7B7FC1427F8A000F01F
:1018E0001DFEFFF771FCFFF7ECFD022001F008F888
:1018F0000020FFF793FE04460146FEA000F00EFE16
:1019000049F220356E1D48F689194CB140F6FF703A
:10191000844205D34C4504D0AC4202D0B44200D03E
:101920004C46DFF810A42146F2A0AAF8044000F0CB
:10193000F5FD4FF4004B4FF4E06340F23F18AC422A
:101940007ED15946E520FFF7ADFE01210020FFF7CB
:10195000A9FE4FF480710120FFF7A4FE1C46194632
:101960000220FFF79FFE41F230010320FFF79AFEAD
:1019700000210420FFF796FE40F202210820FFF725
:1019800091FE00210920FFF78DFE00210A20FFF7BC
:1019900089FE00210C20FFF785FE00210D20FFF7B6
:1019A00081FE00210F20FFF77DFE00211020FFF7B0
:1019B00079FE00211120FFF775FE00211220FFF7AC
:1019C00071FE00211320FFF76DFE142000F098FF38
:1019D00041F2B0711020FFF765FE40F2371111207F
:1019E000FFF760FE052000F08BFF40F23911122056
:1019F000FFF758FE052000F083FF4FF4E851132055
:101A0000FFF750FE13212920FFF74CFE052000F0C0
:101A100077FF00212020FFF745FE00212120FFF75E
:101A200041FE07213020FFF73DFE07213120FFF75F
:101A300039FE07213220FFF735FE0721352000E06F
:101A400070E0FFF72FFE07213620FFF72BFE21461F
:101A50003720FFF727FE21463820FFF723FE2146D7
:101A60003920FFF71FFE21463C20FFF71BFE4FF4F5
:101A7000F8513D20FFF716FE00215020FFF712FE1F
:101A8000EF215120FFF70EFE00215220FFF70AFE42
:101A900041465320FFF706FE4FF41C516020FFF72C
:101AA00001FE01216120FFF7FDFD00216A20FFF703
:101AB000F9FD00218020FFF7F5FD00218120FFF7CF
:101AC000F1FD00218220FFF7EDFD00218320FFF7CB
:101AD000E9FD00218420FFF7E5FD00218520FFF7C7
:101AE000E1FD10219020FFF7DDFD00219220FFF79E
:101AF000D9FD03219320FFF7D5FD4FF48871952080
:101B0000FFF7D0FD00219720FFF7CCFD00219820A2
:101B1000FFF7C8FD41F218010320FFF7C3FD40F2B3
:101B200073110BE240F202354C457DD101210020BA
:101B3000FFF7B8FD00211020FFF7B4FD052000F0ED
:101B4000DFFE40F2332319460720FFF7ABFD46F2D4
:101B500078011120FFF7A6FD4FF4C0610220FFF7C6
:101B6000A1FD4AF6A4010320FFF79CFD00210C20F3
:101B7000FFF798FD40F60C010D20FFF793FD4FF4A1
:101B800024510E20FFF78EFDB8211E20FFF78AFD9D
:101B900042F63F110120FFF785FD00211020FFF7DD
:101BA00081FD00210520FFF77DFD00210620FFF7C4
:101BB00079FD4EF61C711620FFF774FD03211720E6
:101BC000FFF770FD19460720FFF76CFDC0210B20C1
:101BD000FFF768FD00210F20FFF764FD0021412081
:101BE000FFF760FD00214220FFF75CFD0021482047
:101BF000FFF758FD41464920FFF754FD00214A20D8
:101C0000FFF750FD00214B20FFF74CFD4FF46F41D3
:101C10004420FFF747FD00214520FFF743FD4146E3
:101C20004620FFF73FFD00E095E040F207713020CD
:101C3000FFF738FD4FF4017319463120FFF732FDED
:101C400019463220FFF72EFD40F202542146332080
:101C5000FFF728FD611D3420FFF724FD19463520CC
:101C6000FFF720FD19463620FFF71CFD21463720DF
:101C7000FFF718FD2B4629463A20FFF713FD1946BA
:101C80003B20FFF70FFD00212320FFF70BFD53E062
:101C900020207777772E61726D6A697368752E637D
:101CA0006F6D202000000000204C4344205353441B
:101CB000313238392C494438393839200000000095
:101CC0000A0D20C9F1D6DBCDF553544D33323430F3
:101CD000375A4754204C43445F496E697420436F20
:101CE0006E66696775726520746865204C43442090
:101CF000000000000A0D20232323232323204C432C
:101D00004420446576696365436F6465203D204CDB
:101D100043445F52656164526567283078303030E3
:101D20003029203D203078257820232323232323A6
:101D3000200000005400002000212420FFF7B2FC06
:101D400059462520FFF7AEFC00214E20FFF7AAFCE4
:101D500000214F20F3E0B4427DD101210020FFF7A4
:101D6000A1FC4FF480710120FFF79CFC1946022072
:101D7000FFF798FC41F218010320FFF793FC0021C4
:101D80000420FFF78FFC40F202210820FFF78AFCB5
:101D900000210920FFF786FC00210A20FFF782FCC2
:101DA00000210C20FFF77EFC00210D20FFF77AFCBC
:101DB00000210F20FFF776FC00211020FFF772FCB6
:101DC00000211120FFF76EFC00211220FFF76AFCB2
:101DD00000211320FFF766FC142000F091FD41F272
:101DE000B0711020FFF75EFC40F237111120FFF7B1
:101DF00059FC052000F084FD40F239111220FFF754
:101E000051FC052000F07CFD4FF4E8511320FFF752
:101E100049FC13212920FFF745FC052000F070FD47
:101E200000212020FFF73EFC00212120FFF73AFC93
:101E300007213020FFF736FC29463120FFF732FC1E
:101E400040F2051319463220FFF72CFC40F206241D
:101E50002146352000E074E0FFF724FC40F6080539
:101E600029463620FFF71EFC21463720FFF71AFCD3
:101E700040F204513820FFF715FC07213920FFF705
:101E800011FC19463C20FFF70DFC29463D20FFF7C9
:101E900009FC00215020FFF705FCEF215120FFF73E
:101EA00001FC00215220FFF7FDFB41465320FFF7C4
:101EB000F9FB4FF427416020FFF7F4FB012161207B
:101EC000FFF7F0FB00216A20FFF7ECFB00218020E8
:101ED000FFF7E8FB00218120FFF7E4FB00218220CF
:101EE000FFF7E0FB00218320FFF7DCFB00218420CB
:101EF000FFF7D8FB00218520FFF7D4FB10219020AD
:101F0000FFF7D0FB00219220FFF7CCFB03219320A9
:101F1000FFF7C8FB4FF488719520FFF7C3FB002142
:101F20009720FFF7BFFB00219820FFF7BBFB41F292
:101F300008010320FFF7B6FB40F233110720FFF73B
:101F4000B1FB2B48CAF80800D0464FF478414FF651
:101F5000E070FFF76FFB4FF4FC60FFF721F9002002
:101F6000FFF714FA224D4FEA0D0AA88800EB800013
:101F70008000C0F5A07000EBD070C0F34F060024C5
:101F8000D8F80800A9881AF80420C08801FB046169
:101F900000EBC00080B289B2FFF7CCF9641CE4B258
:101FA000BC42EDD3B8F804204A4514D100240DF109
:101FB000180900BFD8F80800A98819F80420C088BB
:101FC00001FB04618004000C89B2FFF7B3F9641CC3
:101FD000E4B2BC42EED3F0224FF4A07105A000F0B1
:101FE0009DFA4FF4827000F08BFC0DB0BDE8F08FCD
:101FF000600000200A0D20232323232323204C43A9
:10200000445F504958454C5F574944544820202567
:10201000643B20204C43445F504958454C5F484541
:1020200049474854202025642E202323232323239B
:10203000200A0D002DE9FC41884604463249324809
:10204000083150F8240051F8241008430121FFF70B
:10205000A3FB2D480838ECB350F824000121FFF70A
:10206000BFFB2948294E403830F81400C2B2264838
:10207000483830F8141056F82400FFF76FF822485B
:1020800006F108073C3830F81400C2B21E48443844
:1020900030F8141057F82400FFF760F800208DF88E
:1020A000060001208DF807001748022550388DF8EA
:1020B000045030F8140000908DF8055056F82400B4
:1020C0006946FFF70DF810488DF804504C3830F889
:1020D000140000E013E0009057F824006946FEF772
:1020E000FFFFA6F10805414655F8240000F0A2F9CB
:1020F00055F82400012100F055F9BDE8FC81006885
:102100000121FFF785FBACE7D04E000874000020EA
:102110001CB504460E48012150F82400FFF73CFB93
:102120000B480021483830F81400009001208DF849
:1021300004008DF806108DF8070002208DF80500C8
:102140000448694650F82400FEF7CAFF1CBD000091
:10215000E04E000884000020044951F820104A692C
:10216000034B33F8100042404A617047840000205E
:10217000984E0008224900200A6842F480320A6022
:102180004FF4A0630A6800F1010012F4003F01D18E
:102190009842F7D10868800331D519484030026869
:1021A00042F0805202601748026842F480420260A6
:1021B0001348083002680260026842F4004202607C
:1021C000026842F4A0520260031F0F4A1A600A68B4
:1021D00042F080720A600A689201FCD50B4A40F214
:1021E00005611160016821F003010160016841F09F
:1021F000020101600168C1F381010229FAD170472F
:10220000003802400070004019544007003C024072
:1022100070B50F4D2878401C28700E4C2088401C4B
:10222000208001F08FF82A7800210B48642A04D31B
:102230002970027842F0040202702288B2F5FA7F17
:1022400004D32180017841F00801017070BD0000C5
:1022500034000020320000203100002070B51A4CFC
:1022600020681A4A10F00C01194804D0194E0429AC
:1022700003D0082903D002601BE0066019E0124970
:10228000091F0B68C3F380550B6803F03F0315B1BA
:10229000B6FBF3F201E0B2FBF3F20B680968C3F39B
:1022A00088135A43C1F30141491C4900B2FBF1F1C3
:1022B00001602168064AC1F30311121D515C0268D6
:1022C000CA40026070BD0000083802400024F400DB
:1022D0000000002040787D010F4810B5016841F0F2
:1022E000010101600C4A00210832116002680B4BA9
:1022F0001A400260031D0A4A1A60026822F4802212
:10230000026005480C300160FFF734FF05494FF0CB
:102310000060086010BD000000380240FFFFF6FEBC
:102320001030002408ED00E00320FFF715FFFA202D
:1023300000F08CFEF8E700007CB50020144C40F261
:10234000255500902946204600F03DF878B12946F1
:10235000204600F021F8204600F0C8F88DF804006F
:102360000C4800236A4601A9006801F03AF940F2DE
:1023700027752946204600F026F818B12946204640
:1023800000F00AF80098002801D000F057FE7CBD4C
:1023900000100140280000200A0A01219140C94391
:1023A000018070470029818902D041F4005101E089
:1023B00021F40051818170470246002012880A42B0
:1023C00000D00120704770B501F01F0601220025E2
:1023D000C1F3421302FA06F4012B0FD0022B0FD0E7
:1023E000838A4FEA11210088234202FA01F200EAAF
:1023F000020001D000B10125284670BD8389F0E7B5
:10240000038AEEE710B5C1F3421301F01F04012166
:10241000A140012B07D0022B07D01430002A0268FC
:1024200005D00A4304E00C30F8E71030F6E78A43A1
:10243000026010BD7FB50446008A0D4620F440516D
:10244000E88808432082A08941F20C618843A9886A
:102450002A8911436A8902431143A181A08A20F489
:102460004071A8890843A0826846FFF7DDF91D483E
:10247000844202D01C48844201D1039800E00298B3
:10248000A1890904002900EBC00101EB00102968B3
:1024900002DA4FEA410101E04FEA8101B0FBF1F0BD
:1024A0006422B0FBF2F14FEA01114FEA11136FF011
:1024B00018056B4300EB8300A3891D044FF0320322
:1024C00006D503EBC000B0FBF2F000F0070005E01A
:1024D00003EB0010B0FBF2F000F00F000843208186
:1024E0007FBD000000100140001401408088C0F34F
:1024F00008007047C1F308018180704701A000F017
:102500000DF8FEE70A0D2055736167654661756C2D
:10251000745F48616E646C65722000000FB4054BF7
:1025200010B503A9044A029800F018F810BC5DF831
:1025300014FB0000ED2A00080C01002002E008C88E
:10254000121F08C1002AFAD170477047002001E02D
:1025500001C1121F002AFBD1704700002DE9FF4F77
:102560008DB004469B460F46002641E1252801D048
:102570000F9963E00025641CA14AA8460121237835
:10258000203B01FA03F0104202D00543641CF6E739
:1025900020782E2817D114F8010F45F004052A28B9
:1025A0000ED06FF02F022078A0F1300109290AD84F
:1025B00008EB880102EB410100EB0108641CF2E723
:1025C00057F8048B641C20786C280DD004DC4C2850
:1025D00012D06A2811D104E074280DD07A280CD1C9
:1025E0000AE045F4001507E0617845F48015814262
:1025F00002D1641C05F58015641C94F800C0BCF180
:10260000690F4DD00CDCBCF1000F6ED0BCF1580F3F
:102610006FD0BCF1630F16D0BCF1640F0CD13FE05A
:10262000BCF1700F6AD0BCF1730F15D0BCF1750FFF
:102630005DD0BCF1780F5CD00F9960465A46904748
:1026400006F10106D3E001CF8DF8000000208DF8DF
:102650000100E946012003E057F8049B4FF0FF30EA
:1026600069074FF0000501D40AE06D1C45450DDAFD
:102670008542FADB19F805100029F6D106E06D1C39
:102680008542FCDB19F805100029F8D12E4404E03E
:1026900019F8010B5A460F9990476D1EF8D2A6E023
:1026A0000A200021CDE90801C5F3025002280AD012
:1026B00001CFC11700290DDA0023D0EB030063EB33
:1026C00001012D2209E007F1070727F00707F7E8C6
:1026D0000201EFE72A0504D52B228DF828200122DC
:1026E00030E0EA072ED02022F7E785E001E00A205B
:1026F00000E010200021CDE9080107E010200021B2
:1027000045F00405CDE908014FF00808C5F3025073
:1027100002281CD001CF00214FF0000A2A0712D551
:10272000BCF1700F19D0DDE9083283F010031343B8
:1027300009D150EA010206D030228DF828208DF808
:1027400029C002229246BCF1580F10D00AE0FF1DAA
:1027500027F00707F7E80201DEE740228DF828207E
:102760004FF0010A27A20DF120090B9209E02AA2DD
:10277000F9E7DDE90823FDF798FD0B9B9B5C09F861
:10278000013D50EA0102F4D1ADEB090000F1200057
:102790000890680701D44FF001080899884502DDC8
:1027A000A8EB010000E000208046002506E00AA812
:1027B0005A46405D0F999047761C6D1C5545F6DBD7
:1027C00004E030205A460F999047761CB8F100017A
:1027D000A8F10108F5DC05E019F8010B5A460F993C
:1027E0009047761C0899481E08900029F4DC641C68
:1027F000207800287FF4BAAE11B03046BDE8F08FE3
:1028000009280100303132333435363738396162C6
:10281000636465660000000030313233343536378A
:1028200038394142434445460000000086B0124C0E
:10283000124E4FF0FF350DF10B0700232A46694673
:10284000606800F0E1FD00232A461946E06800F0C8
:10285000DBFD0098019906EB801000EBC1009DF8AC
:102860000A203946FDF7F0FC00231A461946E068B5
:1028700000F04EFEE1E700002000002050010020A3
:1028800086B004218DF80810002002218DF809106F
:10289000174C184D184EDFF8649000908DF80A0020
:1028A00001274FF0FF382078401CC0B2207040282C
:1028B00000D1277020780023019042461946E8682D
:1028C00000F0A2FD2078402106EB8010FDF7D5FC3A
:1028D00069464846FEF73EF92870642000F0B6FBD2
:1028E00000231A461946E86800F012FEDBE70000F4
:1028F0001C00002020000020500100200064004047
:102900000349484300E0401E0028FCD17047000006
:10291000A08601009EB00026DFF8DC9035463746E1
:102920004FF0FF3AE846002352461BA9D9F80800A9
:1029300000F06AFD9DF86C00242800D117B1012F2A
:102940000CD00FE0761CF6B2042EECD10026012745
:10295000344640216846FDF790FCE4E708F804009F
:10296000641CE4B24028DED16D1CEDB2042DDAD136
:1029700000252F4628462A46A11F434606E000BFF1
:1029800013F802C0521C8CEA0000D2B28A42F7DB74
:1029900018F8021081422BD1521C694612A8FDF78B
:1029A00053FC16A0FFF7BAFD9DF8481016A0FFF7DC
:1029B000B5FD9DF849101BA0FFF7B0FDBDF84A100A
:1029C0001FA0FFF7ABFDBDF84C1025A0FFF7A6FD3B
:1029D000BDF84E102AA0FFF7A1FDBDF8501030A0A1
:1029E000FFF79CFDBDF8521035A0FFF797FD9AE761
:1029F0003AA0FFF793FD96E7200000207265632060
:102A00006F6B200D0A000000737061726B5F686568
:102A1000616465722E74797065203D203078257868
:102A20000D0A0000737061726B5F686561646572A6
:102A30002E6964203D20307825780D0A00000000C2
:102A4000737061726B5F6865616465722E72656731
:102A5000696F6E5F6964203D20307825780D0A002B
:102A6000737061726B5F6865616465722E7061720C
:102A7000616D31203D20307825780D0A000000007E
:102A8000737061726B5F6865616465722E706172EC
:102A9000616D32203D20307825780D0A000000005D
:102AA000737061726B5F6865616465722E706172CC
:102AB000616D33203D20307825780D0A000000003C
:102AC000737061726B5F6865616465722E636865BF
:102AD000636B203D20307825780D0A0072656320F5
:102AE0006572726F72200D0A0000000070B5074D0C
:102AF0000446C1B22846FFF7FDFC40212846FFF7F7
:102B00005BFC0028F9D0204670BD00000010014099
:102B10001FB5FEF711FE012504220223114626A04F
:102B20000095FFF7FBFCFEF709FDFDF731FC401CAB
:102B300040D02CA0FFF7F2FC30A0FFF7EFFC002400
:102B4000CDE9005402942346802237A138480394EB
:102B500000F098FD37A0FFF7E1FC0320CDE9000469
:102B60000294002380223EA14048039400F08AFD95
:102B70003FA0FFF7D3FC0420CDE90004029400231A
:102B8000802246A14748039400F07CFD46A0FFF751
:102B9000C5FC0520CDE900040294002380224DA14C
:102BA0004E48039400F06EFD4DA0FFF7B7FC00F017
:102BB0003DFBFEE754A0BDE76C6F6E67203D20250E
:102BC0006420696E74203D2025642073686F7274E0
:102BD000203D2025642063686172203D2025640D1E
:102BE0000A00000043414E315F436F6E6669672003
:102BF000737563636573730D0A0000000A0D204648
:102C000072656552544F532056362E312E3020783F
:102C10005461736B43726561746520546F67676CB0
:102C2000654C6564340D0A004C45443400000000D6
:102C3000292300080A0D204672656552544F53201F
:102C400056362E312E3020785461736B4372656195
:102C500074652063616E3153656E640D0A00000077
:102C600043414E3153454E44000000008128000886
:102C70000A0D204672656552544F532056362E3148
:102C80002E3020785461736B4372656174652063E4
:102C9000616E315265630D0A0000000043414E3100
:102CA000524543002D2800080A0D204672656552E2
:102CB000544F532056362E312E3020785461736B8A
:102CC00043726561746520646F436F6D6D616E64FE
:102CD0000D0A000044434D4D440000001529000832
:102CE0000A0D204672656552544F532056362E31D8
:102CF0002E30205374617274207363686564756C40
:102D000065720D0A0000000043414E315F436F6E53
:102D1000666967206661696C65640D0A00000000E1
:102D200070B5154C6068002824D000F0A1FA134D4E
:102D30002868D8B100F090FD00F04EF9286808B17D
:102D4000E868C0680546001D00F034F9A068401E20
:102D5000A0606068401E606000F048F9286B00F0D9
:102D60004FF92846BDE8704000F04AB9BDE8704010
:102D700000F072BD70BD0000C0000020184E0020A1
:102D800030B40B46016800290DD0C468026C1444AD
:102D9000C4604568AC4201D2214600E0C16030BC4D
:102DA0001846FDF751BA30BC704710B504461046BE
:102DB000226C8AB1C8B1E068FDF746FAE168206C80
:102DC000091AE1602268914202D26168081AE06043
:102DD000A06B401CA06310BD20680028F8D160687B
:102DE00000F0C6F900206060F2E7A068FDF72CFA59
:102DF000216CA0680844A06061688842E8D320681C
:102E0000A060E5E7044C00BFFFF78AFF20680128B7
:102E1000FAD900F013F9F7E7504D002070B50446D9
:102E200000F0DAF804F12405A06C0AE0606A50B101
:102E3000284600F0E1FC08B100F06AF9A06C401EE1
:102E4000A0640028F2DC4FF0FF36A66400F0CEF854
:102E500000F0C2F804F11005606C0AE0206950B17E
:102E6000284600F0C9FC08B100F052F9606C401E21
:102E700060640028F2DC6664BDE8704000F0B6B81B
:102E80002DE9F0410446002500F0F2F9264800F152
:102E90000802436800F110015BB9244B0027C2E926
:102EA00000374FF47056C1E90076C3E900160123DC
:102EB000436043F6FF3394B31034660704D004F044
:102EC0000706C6F108063444661E9E4227D2164EF7
:102ED0001368083601E01E4613465A68A24202D221
:102EE0001A68002AF7D18B4219D035681968316009
:102EF00059681035091B20290DD91A1951600A4942
:102F00005C600831566800E021460C686768B7428B
:102F1000FAD314600A6059680268511A016000F01F
:102F20009BFC2846BDE8F081A8000020501100203D
:102F300010B5031F4FF08074A0F120001C60816168
:102F40004FF00001416140F8202910BD00F1080157
:102F50004FF0FF32C0E90112C16001610021016040
:102F6000704700210161704710B50B685A1C02D0F0
:102F700000F1080202E0026904E052685468246823
:102F80009C42FAD953684B6099608A60516008612D
:102F90000168491C016010BD426853684B6043687A
:102FA0008B60536899605160416008610168491CF9
:102FB00001607047D0E901128A60D0E901125160C6
:102FC00001694A68824201D182684A600022026136
:102FD0000868401E0860704710B5FDF715F90248F3
:102FE0000168491C016010BDA40000200349086865
:102FF000401E086001D1FDF70EB97047A400002003
:1030000010B5002817D0A0F1100400F031F90A48DB
:10301000616800E01046026853688B42FAD3226070
:103020000460054861680838026811440160BDE821
:10303000104000F011BC10BDB000002002494FF05C
:10304000805008607047000004ED00E070B5020099
:1030500019D000F00DF90E4CE06885182068001DAD
:10306000FFF7A8FF20684560E0682168854201F10C
:10307000040101D2E06B00E0A06BFFF775FF00F0E8
:10308000EBFB002803D1BDE87040FFF7D7BF70BD50
:10309000C000002070B51C4CE06918B1206A401CCB
:1030A000206270BDE068401CE060E06830B9A06B51
:1030B000E16BA163E063A06A401CA062134E18E0BC
:1030C0006868E1688842ECD8281DFFF773FFA86A9A
:1030D00018B105F11800FFF76DFFE86A61698842D1
:1030E00000D9606100EB800006EB8000291DFFF72E
:1030F00053FFA06B00680028D3D0A06BC068C568E0
:10310000002DDDD170BD0000C0000020504D00201A
:103110000149012048627047C000002070B5124C80
:103120000D4621681831FFF71FFF2068001DFFF7CB
:1031300041FF681C0BD0E068216828444860E168C2
:103140008842216801F1040108D2E06B07E02168A0
:10315000BDE87040091D0548FFF71EBFA06BBDE824
:103160007040FFF701BF0000C00000202C4E00207F
:1031700010B504001BD0A16CE06A884217D0201D56
:10318000FFF718FFA06CE062C0F107000849A061DA
:10319000E06A4A69904200D94861064900EB800024
:1031A00001EB8000211DBDE81040FFF7F5BE10BD0A
:1031B000C0000020504D002070B5164D0446C06A76
:1031C0002968C96A884223D22868134EC06AC0F1B0
:1031D0000700A061E16A606901EB810106EB8101F2
:1031E000884212D1201DFFF7E5FE2868C06AE06220
:1031F0006969884200D9686100EB800006EB8000B5
:10320000211DBDE87040FFF7C7BE2868C06AE062B4
:1032100070BD0000C0000020504D002002498A6AA5
:103220000260C96841607047C00000201FB50024DB
:103230000094019402942346802209A10A48039431
:1032400000F020FA012809D1FCF7DEFF0748012130
:103250008161C460BDE81F4000F056B81FBD00008A
:1032600049444C4500000000052E0008C000002025
:103270000248C169491CC16170470000C0000020BC
:103280001F48C2691F4922B1012141627047521E85
:103290004261426902EB820251F82220002A42690F
:1032A000F5D002EB820201EB82014A68526801F11B
:1032B00008034A609A4201D152684A60D1680160AD
:1032C000016B0029E2D00168426B496C9142DDD06C
:1032D000016C826C083191420ED20168496C4163E5
:1032E000C268036C1A60026C121D0264026C1160E9
:1032F000016C091D016470470021016370470000E3
:10330000C0000020504D00200B4810B5016841F46A
:103310007F010160016841F07F4101604FF0E020D2
:103320000649416107210161054900200860FCF759
:1033300045FF002010BD000020ED00E03F9002009E
:10334000A4000020064910B54FF080500860FCF73B
:103350005BFFFFF79FFEBDE81040FCF75CBF00007D
:1033600004ED00E070B505000E4628D04C20FFF7B4
:1033700087FD040023D005FB06F0401CFFF780FD0D
:103380002060C8B105FB060161600021A163A06057
:10339000691E01FB0600E563E0604FF0FF30C4E901
:1033A0001060A06404F11000FFF7D0FD04F12400C8
:1033B000FFF7CCFD204670BD2046FFF721FE002020
:1033C00070BD10B54C20FFF75BFD040019D0002044
:1033D00060602060A060E060A0630121C4E90F107C
:1033E000401E6064A06404F11000FFF7AFFD04F11B
:1033F0002400FFF7ABFD00231A461946204600F0D3
:1034000087F8204610BD00002DE9FF43002683B059
:10341000044689469846374600F12405FFF7DCFD4F
:10342000A06B48B349462046E668FFF7A9FCB8F10F
:10343000000F0FD0E660606A30B1284600F0DCF97A
:1034400010B100BFFFF7FAFDFFF7D0FD012007B074
:10345000BDE8F083A06B401EA063206810B900F0A7
:10346000C5F9606020690028EED004F1100000F07A
:10347000C3F90128E6D0E7E7059808B11EB106E0D8
:10348000FFF7B4FD1DE06846FFF7C8FE0126FFF711
:10349000ADFDFFF7EDFEFFF79FFD606C401C00D116
:1034A0006764A06C401C00D1A764FFF79FFD05A9CD
:1034B000684600F0C1F830B12046FFF7AFFC00F0DD
:1034C000CBF90020C3E7FFF787FDA06B38B1FFF70A
:1034D0008DFD2046FFF7A2FC00F0BEF99EE7FFF746
:1034E00085FD206830B9FFF777FD6068FFF764FE5F
:1034F000FFF77CFD28460599FFF710FE2046FFF7F1
:103500008DFC00F0A9F9002888D1FFF797FD85E729
:103510002DE9FF41002582B0044688461F462E460D
:10352000FFF75AFDA16BE06B814214D23A46414647
:103530002046FFF73AFC606A38B104F1240000F03D
:103540005BF9012801D1FFF779FDFFF74FFD01205D
:1035500006B0BDE8F081049808B11DB106E0FFF7A0
:1035600045FD1DE06846FFF759FE0125FFF73EFDCA
:10357000FFF77EFEFFF730FD606C401C00D16664F3
:10358000A06C401C00D1A664FFF730FD04A968467A
:1035900000F052F830B12046FFF740FC00F05CF933
:1035A0000020D5E7FFF718FDA06BE16B884210D132
:1035B000FFF71CFD04F110000499FFF7AFFD204652
:1035C000FFF72CFC00F048F90028A9D1FFF736FDE1
:1035D000A6E7FFF70BFD2046FFF720FC00F03CF9C3
:1035E0009EE72DE9F04104460F4615461E46FCF7BE
:1035F0000BFEA06BE16B884217D23246394620465B
:10360000FFF7D3FBA06C411C03D0401CA064012435
:103610000CE0606A0028FAD004F1240000F0ECF815
:103620000028F4D001202860F1E70024FCF7F3FD26
:103630002046BDE8F081000070B504460D46FFF756
:10364000CBFC2B68581C14D00D4A2068916A884224
:1036500003D06068D16888420DD96068D168091AC2
:10366000994208D2D168081A181A28602046FFF734
:10367000D5FD002400E00124FFF7B8FC204670BD12
:10368000C00000202DE9FF5F8346DDE90E688A4611
:1036900015464C20109FFFF7F3FB04004DD0A80007
:1036A0008146E7B338462063D0B3A5224946FCF7EC
:1036B000DDFD6FF0030101EB8501206B3546084409
:1036C00020F007075146102204F13400FCF7E1FD19
:1036D000002084F84300072D00D30625E562201D55
:1036E000A564FFF73EFC04F11800FFF73AFCC5F1B2
:1036F00007012461A161646259463846039AFFF7C5
:1037000017FC2060B8F1000F01D0C8F80040FFF7A7
:1037100063FC344DA868401CA860286801E006E0FE
:1037200008E0DFF8C48058B1A86990B337E0FFF72C
:10373000A7FBB8E72046FFF763FC4FF0FF344DE0EE
:103740002C60A86801282AD15FF0000707EB8701E9
:1037500008EB8100FFF7FAFB7F1C072FF6D3224806
:103760008C30FFF7F3FB2048A030FFF7EFFB1E483B
:10377000B430FFF7EBFB1C48C830FFF7E7FB1A48F3
:10378000DC30FFF7E3FB18488C30A8631430E863A3
:1037900005E0FFE72868C06AB04200D82C60E06A04
:1037A0002969884200D92861E96A6164491CE96293
:1037B0006969884200D9686100EB800108EB8100EB
:1037C000211DFFF7E9FB0124FFF710FCA86928B1D0
:1037D0002868C06AB04201D2FFF730FC04B020462E
:1037E000BDE8F09FC0000020504D00200148006857
:1037F00070470000C000002070B5016811B1C068BA
:10380000C46800E0002404F118000646FFF7D2FB6C
:103810000F4DE86910B131460E480EE0201DFFF74C
:10382000C9FBE06A6969884200D96861094900EB0F
:103830008000B43901EB8000211DFFF7ADFBE06A89
:103840002968C96A884201D3012070BD002070BD7B
:10385000C0000020044E00202DE9F0470026FFF7AD
:10386000BBFB2748C169491EC161C16979BB816839
:1038700069B3244F0025A7F1B40980461CE000BFBE
:1038800004F11800FFF796FB201DFFF793FBE06A99
:10389000D8F81410884201D9C8F8140000EB800150
:1038A00009EB8100211DFFF777FBE16AD8F80000E2
:1038B000C06A814200D30125386818B1F868C4682D
:1038C000002CDDD1D8F82000444630B909E012E0E0
:1038D000FFF7E0FB206A401E2062206A0028F7D133
:1038E00004E0012D02D0606A012804D100200126E5
:1038F0006062FFF7A3FBFFF779FB3046BDE8F08776
:10390000C0000020044E0020000000000000000065
:1039100000000000000000000000000000000000A7
:103920000000000000000000000000000000000097
:103930000000000000000000000080018001800104
:10394000800180018001800180018001800180016F
:103950008001800100000000800180010000000063
:10396000000000000000000000000000CC00CC00BF
:10397000CC00CC00CC00CC00000000000000000017
:103980000000000000000000000000000000000037
:103990000000000000000000000000000000000027
:1039A00000000000600C600C600C30063006FE1F4A
:1039B000FE1F300638071803FE1FFE1F18031803EA
:1039C0008C018C018C01000000008000E003F80FE6
:1039D0009C0E8C1C8C188C009800F801E007800E5F
:1039E000801C8C188C189C18B80CF00FE003800019
:1039F00080000000000000000000000000000E1821
:103A00001B0C110C11061106110311039B018E01F1
:103A1000C038C06C60446044304430441844186C72
:103A20000C380000000000000000E001F00338073F
:103A3000180618063003F001F000F8009C310E3330
:103A4000061E061C061C063FFC73F0210000000049
:103A50000000000000000000000000000C000C004E
:103A60000C000C000C000C00000000000000000026
:103A70000000000000000000000000000000000046
:103A800000000000000000000000000200038001B0
:103A9000C000C00060006000300030003000300026
:103AA000300030003000300060006000C000C00016
:103AB0008001000300020000000020006000C00040
:103AC00080018001000300030006000600060006D6
:103AD00000060006000600060003000380018001C6
:103AE000C000600020000000000000000000000096
:103AF00000000000C000C000D806F807E001300355
:103B00003807000000000000000000000000000076
:103B100000000000000000000000000000000000A5
:103B20000000000080018001800180018001FC3FD5
:103B3000FC3F8001800180018001800100000000C5
:103B40000000000000000000000000000000000075
:103B50000000000000000000000000000000000065
:103B60000000000000000000000080018001000152
:103B700000018000000000000000000000000000C4
:103B80000000000000000000000000000000000035
:103B9000E007E00700000000000000000000000057
:103BA0000000000000000000000000000000000015
:103BB0000000000000000000000000000000000005
:103BC00000000000000000000000C000C000000075
:103BD00000000000000000000000000C000C0006C7
:103BE000000600060003000300038003800180013B
:103BF0008001C000C000C000600060000000000044
:103C000000000000000000000000E003F007380E94
:103C1000180C0C180C180C180C180C180C180C1884
:103C20000C180C18180C380EF007E0030000000008
:103C30000000000000000000000000018001C00141
:103C4000F0019801880180018001800180018001DC
:103C5000800180018001800180018001000000005E
:103C600000000000000000000000E003F80F180C46
:103C70000C180C1800180018000C00060003800136
:103C8000C000600030001800FC1FFC1F0000000096
:103C900000000000000000000000E001F807180E1E
:103CA0000C0C0C0C000C0006C003C007000C001824
:103CB00000180C180C18180CF807E003000000009E
:103CC00000000000000000000000000C000E000FCB
:103CD000000F800DC00C600C600C300C180C0C0C2C
:103CE000FC3FFC3F000C000C000C000C000000002E
:103CF00000000000000000000000F80FF80F18009E
:103D000018000C00EC03FC071C0E001C0018001827
:103D100000180C181C0C180EF807E0030000000037
:103D200000000000000000000000C007F00F381C79
:103D3000181818000C00CC03EC0F3C0E1C1C0C18BF
:103D40000C180C18181C380EF007E00300000000D7
:103D500000000000000000000000FC1FFC1F000C21
:103D600000060006000380038001C001C000E000DF
:103D70006000600070003000300030000000000083
:103D800000000000000000000000E003F007380E13
:103D9000180C180C180C3806F007F007180C0C1843
:103DA0000C180C180C18380CF80FE0030000000079
:103DB00000000000000000000000E003F007380EE3
:103DC0001C0C0C180C180C181C1C381EF81BE019C5
:103DD0000018000C000C1C0EF807F0010000000099
:103DE00000000000000000000000000000000000D3
:103DF00000000000800180010000000000000000C1
:103E000000000000000000008001800100000000B0
:103E100000000000000000000000000000000000A2
:103E20000000000080018001000000000000000090
:103E3000000000000000000080018001000100017E
:103E400080000000000000000000000000000000F2
:103E500000000000000000000010001C800FE003C4
:103E6000F8001800F800E003800F001C00100000AC
:103E70000000000000000000000000000000000042
:103E80000000000000000000F81F0000000000001B
:103E9000F81F00000000000000000000000000000B
:103EA0000000000000000000000000000000000012
:103EB000000000000000000008003800F001C0070A
:103EC000001F0018001FC007F001380008000000A4
:103ED00000000000000000000000E003F80F180CD4
:103EE0000C180C180018000C000600038001C0001C
:103EF000C000C00000000000C000C00000000000C2
:103F0000000000000000000000000000E00718189A
:103F10000420C229224A11440944094409440922BF
:103F20001113E20C024004201818E0070000000002
:103F30000000000000000000000080038003C006B5
:103F4000C006C006600C600C301830183018F83FFE
:103F5000F83F1C700C600C6006C006C0000000003A
:103F600000000000000000000000FC03FC0F0C0C2F
:103F70000C180C180C180C0CFC07FC0F0C180C304F
:103F80000C300C300C300C18FC1FFC07000000003B
:103F900000000000000000000000C007F01F3838DB
:103FA0001C300C70066006000600060006000600C5
:103FB000060006600C701C30F01FE00700000000D7
:103FC00000000000000000000000FE03FE0F060ECF
:103FD0000618061806300630063006300630063061
:103FE000063006180618060EFE0FFE03000000003D
:103FF00000000000000000000000FC3FFC3F0C003F
:104000000C000C000C000C00FC1FFC1F0C000C0032
:104010000C000C000C000C00FC3FFC3F00000000FA
:1040200000000000000000000000F83FF83F18000A
:104030001800180018001800F81FF81F18001800C2
:1040400018001800180018001800180000000000E0
:1040500000000000000000000000E00FF83F3C7886
:104060000E6006E007C00300030003FE03FE03C06A
:1040700007C006C00EC03CF0F83FE00F0000000093
:10408000000000000000000000000C300C300C307C
:104090000C300C300C300C30FC3FFC3F0C300C3042
:1040A0000C300C300C300C300C300C3000000000A8
:1040B000000000000000000000008001800180017D
:1040C00080018001800180018001800180018001E8
:1040D00080018001800180018001800100000000DA
:1040E00000000000000000000000000600060006BE
:1040F0000006000600060006000600060006000690
:104100000006180618063807F003E001000000005A
:104110000000000000000000000006300618060C39
:10412000060606038601C60066007600DE008E01E4
:1041300006030606060C061806300660000000009E
:104140000000000000000000000018001800180027
:10415000180018001800180018001800180018009F
:104160001800180018001800F81FF81F00000000C1
:10417000000000000000000000000EE01EF01EF035
:104180001EF036D836D836D836D866CC66CC66CC53
:10419000C6C6C6C6C6C6C6C686C386C3000000005D
:1041A000000000000000000000000C301C303C301B
:1041B0003C306C306C30CC30CC308C310C330C3328
:1041C0000C360C360C3C0C3C0C380C30000000005B
:1041D00000000000000000000000E007F81F1C388D
:1041E0000E70066003C003C003C003C003C003C059
:1041F00003C006600E701C38F81FE00700000000C6
:1042000000000000000000000000FC0FFC1F0C3844
:104210000C300C300C300C300C18FC1FFC070C0060
:104220000C000C000C000C000C000C000000000046
:1042300000000000000000000000E007F81F1C382C
:104240000E70066003E003C003C003C003C003C0D8
:1042500007E006630E3F1C3CF83FE0F700C000009B
:1042600000000000000000000000FE0FFE1F0638E6
:104270000630063006300638FE1FFE070603060627
:10428000060C06180618063006300660000000000E
:1042900000000000000000000000E003F80F1C0C0C
:1042A0000C180C180C001C00F803E00F001E00385E
:1042B000063006300E301C1CF80FE007000000002E
:1042C00000000000000000000000FE7FFE7F800173
:1042D00080018001800180018001800180018001D6
:1042E00080018001800180018001800100000000C8
:1042F000000000000000000000000C300C300C300A
:104300000C300C300C300C300C300C300C300C30CD
:104310000C300C300C301818F81FE00700000000BB
:1043200000000000000000000000036006300630BE
:1043300006300C180C180C18180C180C380E300617
:104340003006700760036003C001C0010000000078
:10435000000000000000000000000360C361C361B2
:10436000C3616633663366336633663366336C1B0C
:104370006C1B6C1B2C1A3C1E380E380E0000000003
:10438000000000000000000000000FE00C7018307A
:104390003018700C600EC00780038003C003E00675
:1043A000700C301C18180C300E6007E00000000084
:1043B0000000000000000000000003C006600C3098
:1043C0001C383818300C6006E007C00380018001FB
:1043D00080018001800180018001800100000000D7
:1043E00000000000000000000000FC7FFC7F006077
:1043F00000300018000C000600038001C0006000BF
:10440000300018000C000600FE7FFE7F0000000058
:1044100000000000000000000000E003E003600076
:10442000600060006000600060006000600060008C
:10443000600060006000600060006000600060007C
:104440006000E003E0030000000030003000600086
:1044500060006000C000C000C000C0018001800199
:1044600080010003000300030006000600000000B6
:1044700000000000000000000000E003E003000373
:104480000003000300030003000300030003000314
:104490000003000300030003000300030003000304
:1044A0000003E003E003000000000000C001C001C1
:1044B00060036003600330063006180C180C00001F
:1044C00000000000000000000000000000000000EC
:1044D00000000000000000000000000000000000DC
:1044E00000000000000000000000000000000000CC
:1044F00000000000000000000000FFFFFFFF0000C0
:10450000000000000000000000000C000C000C0087
:104510000C000C000C000000000000000000000077
:10452000000000000000000000000000000000008B
:10453000000000000000000000000000000000007B
:1045400000000000F003F8071C0C0C0C000FF00F2B
:10455000F80C0C0C0C0C1C0FF80FF01800000000ED
:104560000000000000000000000018001800180003
:1045700018001800D803F80F380C18181818181855
:10458000181818181818380CF80FD8030000000075
:10459000000000000000000000000000000000001B
:1045A00000000000C003F007300E180C18001800BF
:1045B00018001800180C300EF007C00300000000AF
:1045C00000000000000000000000001800180018A3
:1045D00000180018C01BF01F301C181818181818E5
:1045E000181818181818301CF01FC01B0000000005
:1045F00000000000000000000000000000000000BB
:1046000000000000C003F00F300C1818F81FF81F4E
:10461000180018003818301CF00FC0070000000008
:1046200000000000000000000000800FC00FC0006C
:10463000C000C000F007F007C000C000C000C0000C
:10464000C000C000C000C000C000C00000000000EA
:10465000000000000000000000000000000000005A
:1046600000000000E00DF80F180E0C0C0C0C0C0CE8
:104670000C0C0C0C0C0C180EF80FE00D000C0C0CB4
:104680001C06F807F00100000000180018001800D0
:1046900018001800D807F80F381C18181818181820
:1046A00018181818181818181818181800000000EA
:1046B00000000000000000000000C000C00000007A
:1046C00000000000C000C000C000C000C000C0006A
:1046D000C000C000C000C000C000C000000000005A
:1046E00000000000000000000000C000C00000004A
:1046F00000000000C000C000C000C000C000C0003A
:10470000C000C000C000C000C000C000C000C000A9
:10471000C000F8007800000000000C000C000C0045
:104720000C000C000C0C0C060C038C01CC006C0073
:10473000FC009C018C030C030C060C0C0000000018
:1047400000000000000000000000C000C000C00029
:10475000C000C000C000C000C000C000C000C00059
:10476000C000C000C000C000C000C00000000000C9
:104770000000000000000000000000000000000039
:10478000000000007C3CFF7EC7E383C183C183C17E
:1047900083C183C183C183C183C183C10000000081
:1047A0000000000000000000000000000000000009
:1047B000000000009807F80F381C1818181818186F
:1047C00018181818181818181818181800000000C9
:1047D00000000000000000000000000000000000D9
:1047E00000000000C003F00F300C1818181818183B
:1047F000181818181818300CF00FC003000000002B
:1048000000000000000000000000000000000000A8
:1048100000000000D803F80F380C181818181818E2
:10482000181818181818380CF80FD80318001800A2
:104830001800180018000000000000000000000030
:1048400000000000C01BF01F301C181818181818A2
:10485000181818181818301CF01FC01B0018001862
:104860000018001800180000000000000000000000
:1048700000000000B007F00370003000300030008E
:104880003000300030003000300030000000000008
:104890000000000000000000000000000000000018
:1048A00000000000E003F003380E180C3800F0039D
:1048B000C007000C180C380EF007E00300000000E1
:1048C0000000000000000000000000008000C000A8
:1048D000C000C000F007F007C000C000C000C0006A
:1048E000C000C000C000C000C0078007000000007A
:1048F00000000000000000000000000000000000B8
:104900000000000018181818181818181818181887
:10491000181818181818381CF01FE01900000000AB
:104920000000000000000000000000000000000087
:10493000000000000C18180C180C180C300630067B
:104940003006600360036003C001C0010000000086
:104950000000000000000000000000000000000057
:1049600000000000C141C141C361636363636363CD
:104970003636363636361C1C1C1C1C1C000000004B
:104980000000000000000000000000000000000027
:10499000000000001C38381C300C60066003600307
:1049A000600360036006300C381C1C3800000000F7
:1049B00000000000000000000000000000000000F7
:1049C000000000001830301830187018600C600CAF
:1049D000E00CC006C00680038003800380018001D4
:1049E000C001F000700000000000000000000000A6
:1049F00000000000FC1FFC1F000C000600038001EB
:104A0000C000600030001800FC1FFC1F0000000008
:104A10000000000000000000000000038001C00052
:104A2000C000C000C000C000C000600060003000D6
:104A300060004000C000C000C000C000C000C00056
:104A4000800100030000000000008001800180015F
:104A5000800180018001800180018001800180014E
:104A6000800180018001800180018001800180013E
:104A7000800180018001000000006000C000C001D2
:104A80008001800180018001800100030003000695
:104A9000000300018001800180018001800180010C
:104AA000C0006000000000000000000000000000E6
:104AB0000000000000000000F010F81F080F0000C8
:104AC00000000000000000000000000000000000E6
:104AD00000000000000000000000000000000000D6
:104AE00000001000001800001800001800003C0032
:104AF000003C00007C003FFFFC1FFFF807FFE003C5
:104B0000FFC001FF8001FF8001FF8001FF8003E7FC
:104B1000C00381C00300C00400600000000000006A
:104B20000000000000000002000006000046003FF8
:104B3000C40000C404008FFE208808118990091168
:104B40008005218002218003038005828005824048
:104B500008C24008C460104C2020083040101800E3
:104B6000600E00800000000000000000000018023D
:104B7000000C0E000672080441FC004108004108C8
:104B80000441087E41080441080441080441080426
:104B900045080459080461780441180401001A0109
:104BA0000071000060E002003FFC00000000000017
:104BB0000000000000000318000618000430000C7C
:104BC0003FFC0C4410144320248200443240042251
:104BD00020044218048218051E0804060000200064
:104BE000019820098C1009884C19804C31804401AF
:104BF00080E000FFC0000000000000000000018114
:104C00000003010003010402FFFE0601000401008D
:104C10000E21180E3FE816210826210826210846F5
:104C20003FF8062100061300061200060A000606D9
:104C300000060600060F000610E006603C0180003A
:104C40000000000000000800100FFFF80C08100C16
:104C500008100C08100C08100C08100FFFF00808C2
:104C6000100808100808100808100FFFF0080810B6
:104C7000080810080810101810101810201810201C
:104C800018F04000300000000000000001000400A7
:104C900080020080020080000088009FFC3F908816
:104CA000011088031088021FF80610880D90880CE8
:104CB000D08814508C241FFC441088040080040009
:104CC0008004008004008004008004018000010052
:104CD0000000000000000018000010000020000389
:104CE000FFE002004002204002104002184002088B
:104CF0004002004002004E3FFFF002004002204010
:104D000002104006184006184004004008004010F9
:104D100007C02001804000000000000000000000EB
:104D2000F8007F001F98000030000040400080C065
:104D3000073F0007C4000018000060400080200703
:104D40007FF807881801080000C880018860020801
:104D50003804081C18080C20F80C0018000000008B
:104D600000000000000000000C000C083FF00801EB
:104D7000000803018802008802188807F8880410D8
:104D8000880C30880A208813208821608801408898
:104D900000C088008188010108020008040008188A
:104DA0000078200018000000000000000000000053
:104DB000000000181FFFE0008180008180008180DA
:104DC00000818000818000818400818C1FFFF000C1
:104DD000818000818000818001818001018001014A
:104DE0008002018004018008018030018000000001
:104DF0000000000000000031000460C00C60600C86
:104E0000606008400018400C17FFF000C00000C0B0
:104E10000000FFE000A06001A040011080030980B5
:104E2000020900060600040600080D801030E0208C
:104E3000403E438008000000000000000000060023
:104E4000300400F8041F000410000490003F10001C
:104E50000C10100C1FF00E14300D14201C94201494
:104E6000B2601432402423C04421804421800423B2
:104E7000C004466004883804B01C05C0000000006F
:104E8000000200040004000809000A000A000B00E8
:104E9000070007000700070000040002000180006F
:104EA0000100002000082000010000200008200070
:104EB000000002000500000000000D000B000500CE
:104EC0000600280028001700100000000000040061
:104ED00001000000020000000100000002000000CC
:104EE0002000000020000000200000002000000042
:104EF000010000000400000020000000010000008C
:104F0000204F000800000020100100003C25000890
:104F10003050000810010020685100004C250008A6
:104F2000007A030A000000000000000001020304F0
:104F30000607080900000000000000000000000053
:104F40000000000000000000000000000000000061
:104F50000000000000000000000000000000000051
:104F6000000000000000000001020304010203042D
:104F7000060708090000FFFF000000000000000015
:104F8000083900081000180000000000001001405F
:104F900000480040000002400004024000000240BF
:104FA00000040240001402400014024000140240B9
:104FB00000140240000002400008024000140240B9
:104FC00000000240AAAAAAAA003C000000000000BB
:104FD00000000000000000000000000000000000D1
:104FE00000000000000000000000000000000000C1
:104FF00000000000000000000000000000000000B1
:1050000000000000000000000000000000000000A0
:1050100000000000FF000000000000000000000091
:105020000000000000000000000000000000000080
:040000050800018965
:00000001FF
